:100000000C94E91C0C941A1D0C941A1D0C941A1DC6
:100010000C941A1D0C941A1D0C941A1D0C941A1D84
:100020000C941A1D0C941A1D0C941A1D0C941A1D74
:100030000C941A1D0C945E630C941A1D0C941A1DDA
:100040000C941A1D0C9474D50C941A1D0C941A1D42
:100050000C941A1D0C941A1D0C9413F30C94345028
:100060000C941A1D0C9414470C941A1D0C941A1D10
:100070000C941A1D0C941A1D0C941A1D0C941A1D24
:100080000C941A1D0C941A1D0C941A1D0C941A1D14
:100090000C941A1D0C941A1D0C941A1D0C941A1D04
:1000A0000C941A1D0C941A1D0C941A1D0C941A1DF4
:1000B0000C941A1D0C941A1D0C941A1D0C941A1DE4
:1000C0000C941A1D0C941A1D0C941A1D0C941A1DD4
:1000D0000C941A1D0C941A1D0C941A1D0C941A1DC4
:1000E0000C941A1D794F7C4F6B4F6F4F754FB34F68
:1000F000804F844F8A4F8E4F924F984F9C4FA04F06
:10010000B34FA64FAA4FAE4F48842E843184348417
:10011000378443843A8454843D84408461A266A237
:100120006BA275A27FA2F8A289A291A299A2A3A212
:10013000ADA2B7A2C6A2D0A2F8A2DAA2E4A2EEA211
:10014000084AD73B3BCE016E84BCBFFDC12F3D6C3E
:1001500074319ABD56833DDA3D00C77F11BED9E4A4
:10016000BB4C3E916BAAAABE000000803F05A84C84
:10017000CDB2D44EB93836A9020C50B99186880850
:100180003CA6AAAA2ABE000000803F000D94AF0B37
:100190000D94DC140D94760D0D947E0D0D94BB140E
:1001A0000D947A0D0D94B90B0D94F40B0D94B40BC2
:1001B0004E414E494E495459494E46CDCCCC3D0A4C
:1001C000D7233C17B7D13877CC2B329595E6241F2F
:1001D000B14F0A000020410000C84200401C4620E8
:1001E000BCBE4CCA1B0E5AAEC59D7400407A10F3BB
:1001F0005A00A0724E18090010A5D4E80000E87655
:1002000048170000E40B54020000CA9A3B000000AB
:10021000E1F505000080969800000040420F0000C4
:1002200000A08601000000102700000000E8030085
:100230000000006400000000000A0000000000014F
:1002400000000000002C76D888DC674F0823DFC14F
:10025000DFAE59E1B1B796E5E3E453C63AE651990A
:100260007696E8E6C28426EB898C9B62ED407C6F33
:10027000FCEFBC9C9F40F2BAA56FA5F490055A2AEA
:10028000F75C936B6CF9676DC11BFCE0E40D47FEF6
:10029000F520E6B500D0ED902E03009435770500EB
:1002A00080841E080000204E0A000000C80C333372
:1002B00033330F986E12831141EF8D2114893BE681
:1002C0005516CFFEE6DB18D1844B381BF77C1D900A
:1002D0001DA4BBE424203284725E228100C9F12473
:1002E000ECA1E53D27434F4D4D554E4943415449FF
:1002F0004F4E0044525952554E004552524F5253A0
:1003000000494E464F004543484F0047322F473380
:100310002062616420706172616D65746572730A38
:1003200000536C6565702E2E2E00486F6D65205849
:10033000592066697273740A00486F6D65205859B8
:1003400020666972737400436C69636B20746F205C
:10035000726573756D652E2E2E004E6F206D6F7653
:10036000652E00456E642066696C65206C69737447
:100370000A00426567696E2066696C65206C697366
:10038000740A004D31323500286E6F2066696C6545
:1003900029005344207072696E74696E6720627917
:1003A000746520004E6F74205344207072696E741F
:1003B000696E670A0043757272656E742066696CB7
:1003C000653A200046696C652064656C65746564F7
:1003D0003A0044656C6574696F6E206661696C658E
:1003E000642C2046696C653A2000256973002569F4
:1003F0006D20256973002569682025696D202569B0
:100400007300256964202569682025696D202569A8
:10041000730025697920256964202569682025698C
:100420006D20256973005072696E742074696D6562
:100430003A20004D343820526573756C743A20258B
:1004400073005374616E64617264204465766961FF
:1004500074696F6E3A20002052616E67653A200021
:10046000204D61783A2000204D696E3A20004D659C
:10047000616E3A200046696E6973686564210A00FE
:100480002072616E67653A2000206D61783A200025
:10049000206D696E3A2000207369676D613A200013
:1004A000206D65616E3A20003A207A3A2000206F74
:1004B000662000506F736974696F6E696E6720748F
:1004C00068652070726F62652E2E2E0A003F20280C
:1004D000582C5929206F7574206F6620626F756ED5
:1004E00064732E0A003F53616D706C652073697AE6
:1004F00065206E6F7420706C61757369626C652025
:1005000028342D3530292E0A004D34382054657397
:10051000742052756E6E696E672E2E2E0A003F286B
:1005200056296572626F7365206C6576656C20650F
:1005300072726F722028302D34292E0A00060301B2
:1005400003FA02F302E5026F66660044454255472E
:100550003A004B494C4C45442E20004D313133205C
:1005600053006F6B0020573A004520436F6F6C6952
:100570006E672E2E2E00452048656174696E672EC9
:100580002E2E0020573A0042656420636F6F6C691D
:100590006E672E2E2E004265642068656174696E58
:1005A000672E2E2E004352313073207769746820F5
:1005B00041424C204F66662E002C20002C20005417
:1005C0004845524D414C5F50524F54454354494F5A
:1005D0004E004155544F5245504F52545F53445F63
:1005E00053544154555300454D455247454E435988
:1005F0005F50415253455200434153455F4C494778
:1006000048545F4252494748544E45535300544F53
:1006100047474C455F4C494748545300534F465455
:10062000574152455F504F574552004255494C443F
:100630005F50455243454E54004C4556454C494E3B
:10064000475F44415441005A5F50524F4245004178
:1006500055544F4C4556454C005052494E545F4AF4
:100660004F420050524F4752455353004155544F4B
:100670005245504F52545F54454D5000564F4C55C3
:100680004D455452494300454550524F4D00534546
:100690005249414C5F584F4E5F584F4646004649BD
:1006A000524D574152455F4E414D453A4D61726C36
:1006B000696E20544833442055312E52322E346214
:1006C00020534F555243455F434F44455F55524C6D
:1006D0003A2050524F544F434F4C5F564552534966
:1006E0004F4E3A312E30204D414348494E455F54DC
:1006F0005950453A4352313073207769746820412C
:10070000424C2045585452554445525F434F554E34
:10071000543A3120555549443A0A002F2F20004DB4
:1007200031343520533C696E6465783E206F7574B2
:10073000206F662072616E67652028302D31290A8E
:1007400000205400205200416363656C657261743F
:10075000696F6E3A2050005741524E494E47212052
:100760004C6F77205A204A65726B206D6179206C3E
:1007700065616420746F20756E77616E74656420A6
:100780007061757365732E0A004F666673657473C6
:10079000206170706C696564004572723A20546F14
:1007A0006F206661722100546F6F2066617220664F
:1007B000726F6D207265666572656E636520706F1D
:1007C000696E740A00205A00205900580020204DFC
:1007D00061783A2000205A00205900580020204D0E
:1007E000696E3A20004F6E20004F666600536F66B8
:1007F0007420656E6473746F70733A200020643ADD
:100800000020693A0020703A0041637469766520DF
:1008100045787472756465723A2000496E76616C31
:1008200069642065787472756465720A004E6F2081
:10083000436865636B73756D2077697468206C69B4
:100840006E65206E756D6265722C204C617374202C
:100850004C696E653A20004B494C4C45442E2000B3
:1008600053544F505045442E20005072696E7465A9
:10087000722073746F707065642064756520746F86
:10088000206572726F72732E2046697820746865D5
:10089000206572726F7220616E6420757365204DE1
:1008A00039393920746F20726573746172742E2027
:1008B0002854656D70657261747572652069732066
:1008C00072657365742E20536574206974206166A7
:1008D0007465722072657374617274696E67290A37
:1008E000004E6F20436865636B73756D2077697484
:1008F00068206C696E65206E756D6265722C204C87
:10090000617374204C696E653A2000636865636B9F
:1009100073756D206D69736D617463682C204C6113
:100920007374204C696E653A20004C696E65204EE8
:10093000756D626572206973206E6F74204C6173EF
:1009400074204C696E65204E756D6265722B312C7A
:10095000204C617374204C696E653A20004D313132
:1009600030004D333100534420726561642065725C
:10097000726F720A00446F6E65207072696E7469DE
:100980006E672066696C650A0020496E76616C6945
:100990006420657874727564657220000000000040
:1009A0000000000000000000000096430000964395
:1009B0000000C84342696C696E656172204C6576BF
:1009C000656C696E6720477269643A0A004D6F76FC
:1009D0006520302E316D6D004D6F766520316D6D67
:1009E000004D6F76652031306D6D004D6F7665205E
:1009F00061786973004578747275646572004D6F33
:100A00007665205A004D6F76652059004D6F7665EA
:100A10002058004578747275646572004D6F766574
:100A2000205A004D6F76652059004D6F766520582D
:100A3000005072657061726500496E697469616C1D
:100A4000697A6520454550524F4D00436F6E747270
:100A50006F6C00496E697469616C697A65204545FF
:100A600050524F4D0053746F7265207365747469F2
:100A70006E67730046696C616D656E74004D6F74CE
:100A8000696F6E0054656D70657261747572650092
:100A90004D61696E004D3330332055312045256955
:100AA0002053256900507265686561742041425386
:100AB00020636F6E66005072656865617420504CEB
:100AC0004120636F6E6600504944204175746F7415
:100AD000756E6500504944204175746F74756E657C
:100AE000005049442D44005049442D44005049448D
:100AF0002D49005049442D49005049442D50005083
:100B000049442D500046616E20737065656400464F
:100B1000616E2073706565640042656400426564BF
:100B2000004E6F7A7A6C65004E6F7A7A6C6500437E
:100B30006F6E74726F6C0053746F7265207365749E
:100B400074696E67730042656400426564004E6FAD
:100B50007A7A6C65004E6F7A7A6C650046616E2019
:100B600073706565640046616E207370656564002E
:100B700054656D70657261747572650000002100C6
:100B8000240027002A002D0030003300010100005E
:100B9000040107010A017C3C3E5E2B3D3F2F5B5D5B
:100BA0003B2C2A225C004572726F72207772697446
:100BB000696E6720746F20454550524F4D210A00E1
:100BC000454550524F4D206461746173697A6520C8
:100BD0006572726F722E0A00000022002500280044
:100BE0002B002E0031003400020100000501080135
:100BF0000B01000020002300260029002C002F00FC
:100C00003200000100000301060109010505050588
:100C1000070508080808020202020A0A0808040474
:100C200004040101010101010101030303030303A2
:100C30000303040707070C0C0C0C0C0C0C0C020231
:100C4000020206060606060606060B0B0B0B0B0B2E
:100C50000B0B0102102020080810204010204080BB
:100C60000201020108040201010204081020408070
:100C700080402010080402018004020180402010FE
:100C80000804020108040201010204081020408047
:100C9000010204081020408000000A0B02090C0D1C
:100CA0000E0807030401000000000000000000001F
:100CB0000000000000000000000000000000000034
:100CC00000000000121110000000000000000000F1
:100CD0000000000000000000000000000000024BC7
:100CE000494C4C45442E2000202D20496E76616CE5
:100CF0006964206578747275646572206E756D62C2
:100D0000657220210A0000000000000000000000C1
:100D100000000000000000000000000000000000D3
:100D200000000000000000000000000000000000C3
:100D30000000000000000000000000000003C000F0
:100D40000000000000000000000000000003C000E0
:100D50000000000000000000000000000003C000D0
:100D60000000000000000000000000000003C000C0
:100D70000000000000000000000000000003C000B0
:100D80000000000000000000000000000003C000A0
:100D90000000000000000000000000000003C00090
:100DA0000000000000000000000000000003C00080
:100DB0000000000000000000000000000007E0004C
:100DC000000000000000000000000000001FF8000C
:100DD000000000000000000000000000007FFE0096
:100DE00000000000000000000000000000FFFF0005
:100DF00000000000000000000000000003FFFFC032
:100E000000000000000000000000000007FC3FE0C0
:100E10000000000000000000000000000FF81FF0BC
:100E20000000000000000000000000000FF00FF0C4
:100E30000000000000000000000000000FFC3FF078
:100E40000000000000000000000000000FFF7FF025
:100E50000000000000000000000000000FFFFFF095
:100E60000000000000000000000000000FFFFFF085
:100E70000000000000000000000000000F9FF9F0DB
:100E80000000000000000000000000000F8FF1F0E3
:100E90000000000000000000000000000F83C1F00F
:100EA0000000000000000000000000000F83C1F0FF
:100EB0000000000000000000000000000F83C1F0EF
:100EC0000000000000000000000000001FC3C3F885
:100ED0000000000000000000000000007FF3CFFED3
:100EE000000000000000000000000000FFFBDFFF2A
:100EF000000000000000000000000003FFFFFFFFF3
:100F0000C0000000000000000000000FFDFFFFBF58
:100F1000F0000000000000000000000FF8FFFF1FBD
:100F2000F0000000000000000000000FE03FFC07A0
:100F3000F0000000000000000000000F800FF00132
:100F4000F0000000000000000000000F0007E000BB
:100F5000F0000000000000000000000000000000A1
:100F60000000000000000000000000000000000081
:100F70000000000000000000000000000000000071
:100F80000000000000000000000000000000000061
:100F90000000000000000000000000000000000051
:100FA0000000000000000000000000000000000041
:100FB0000000000000000000000000000000000031
:100FC000000000000000000000001FFFFC1F1FE3E6
:100FD000FFC000000000000000001FFFFC1F3FF3E7
:100FE000FFE000000000000000001FFFFC1F3FFBAF
:100FF000FFF000000000000000001FFFFC1F7CFB52
:10100000FFF8000000000000000001F07C1F7C7B66
:10101000E1F8000000000000000001F07C1F787B78
:10102000E0F8000000000000000001F07FFF03FB7B
:10103000E078000000000000000001F07FFF03F3F3
:10104000E078000000000000000001F07FFF03FBDB
:10105000E078000000000000000001F07FFF03FBCB
:10106000E078000000000000000001F07C1F007B21
:10107000E078000000000000000001F07C1F787B99
:10108000E0F8000000000000000001F07C1F787B09
:10109000E1F8000000000000000001F07C1F7CFB74
:1010A000FFF0000000000000000001F07C1F7FFB4B
:1010B000FFF0000000000000000001F07C1F3FF383
:1010C000FFE0000000000000000001F07C1F1FE3B3
:1010D000FF80000000000000000000000000000091
:1010E0000000000000000000000000000000000000
:1010F00000000000000000000000000000000000F0
:101100000000000000001FFFFFFFFFFFFF60000066
:10111000000001FF400000000000FF800000000010
:10112000007F83CF00000C303F87FF80000C301F12
:10113000867980000C000F8C30C7838C30E78C30B0
:10114000CFC7CC31F38C30DCECEC33B98C30D86CBD
:101150006C33198C30D06C0C33198C30D86C0C3348
:10116000198C30DC6C0E3B198C30CF7C079F198CAE
:1011700030C77C038F1940000000000002600000AF
:10118000000000061FFFFFFFFFFFF82020506C61EA
:101190006E6E657242756666657242797465733A01
:1011A00020002046726565204D656D6F72793A208A
:1011B00000436F6D70696C65643A204F6374203230
:1011C0003520323031380A00207C20417574686F38
:1011D000723A202854483344290A0000204C617395
:1011E0007420557064617465643A20005448334437
:1011F0002055312E52322E34620A004D61726C69D4
:101200006E0020536F667477617265205265736556
:10121000740A00205761746368646F6720526573B5
:1012200065740A002042726F776E206F75742052C9
:10123000657365740A002045787465726E616C2070
:1012400052657365740A00506F77657255700A00B5
:1012500073746172740A006175746F25692E67007A
:101260006572726F722077726974696E6720746F2D
:101270002066696C650A00456E6473746F70732034
:10128000256320256320256320256300205A3A002A
:1012900020593A0020583A00656E6473746F707379
:1012A000206869743A2000446F6E65207361766926
:1012B0006E672066696C652E0A004D3239004368FE
:1012C000616E67652066696C616D656E7400507251
:1012D00065686561742041425300507265686561BC
:1012E0007420504C41004368616E67652066696CEC
:1012F000616D656E74005052494E542050415553F3
:10130000454400554E4C4F41442046494C414D45C3
:101310004E54004C4F41442046494C414D454E549B
:10132000005075726765206D6F726500436F6E7453
:10133000696E756500524553554D45204F505449CF
:101340004F4E533A0020204E6F7A7A6C653A200057
:101350006368616E6765006F662074686520666902
:101360006C616D656E74005761697420666F7220E0
:1013700073746172740020204E6F7A7A6C653A2023
:1013800000200066696C616D656E7420756E6C6F0F
:101390006164005761697420666F720020204E6F8F
:1013A0007A7A6C653A20002000506C656173652084
:1013B000776169742E2E2E0048656174696E67200E
:1013C0006E6F7A7A6C650020204E6F7A7A6C653A7F
:1013D0002000200068656174206E6F7A7A6C652E3B
:1013E00000507265737320627574746F6E20746F31
:1013F0000020204E6F7A7A6C653A2000746F20636B
:101400006F6E74696E75652E2E2E00616E6420708D
:101410007265737320627574746F6E00496E7365C4
:1014200072742066696C616D656E740020204E6F69
:101430007A7A6C653A2000200066696C616D656E91
:1014400074206C6F6164005761697420666F72006C
:1014500020204E6F7A7A6C653A2000200066696C15
:10146000616D656E7420707572676500576169748F
:1014700020666F7200746F20726573756D6500571A
:1014800061697420666F72207072696E74004D31EC
:101490003235004D3234005072696E742061626FD3
:1014A0007274656400496E69742E20534420636130
:1014B0007264004D3231004E6F20534420636172DC
:1014C00064004368616E6765205344206361726401
:1014D000004D3231005072696E742066726F6D205B
:1014E00053440053746F70207072696E74004162CF
:1014F0006F7574205072696E7465720052657375F1
:101500006D65207072696E7400506175736520702E
:1015100072696E7400436F6E74726F6C0050726506
:10152000706172650054756E6500496E666F207358
:10153000637265656E004261627973746570205AEA
:10154000004368616E67652066696C616D656E74E5
:10155000004368616E67652066696C616D656E74D5
:10156000004D36303020423000426162797374653C
:1015700070205A00466C6F7700466C6F77004661AA
:101580006E2073706565640046616E2073706565DA
:10159000640042656400426564004E6F7A7A6C654F
:1015A000004E6F7A7A6C6500466164652048656913
:1015B00067687400466164652048656967687400FF
:1015C0005370656564005370656564004D61696EB4
:1015D000005072656865617420504C4120456E640E
:1015E000005072656865617420504C41204265640A
:1015F000005072656865617420504C4100507265FE
:101600007061726500507265686561742041425373
:1016100020456E64005072656865617420414253D4
:1016200020426564005072656865617420414253D0
:1016300000507265706172650070012C0190012785
:1016400001B0012201C0011D01F0011801100213B7
:101650000130020E016002090190020401C002FF84
:10166000000003FA004003F5008003F000D003EB14
:10167000002004E6007004E100E004DC004005D72F
:1016800000C005D2004006CD00D006C8008007C3C8
:10169000003008BE00F008B900C009B400B00AAFBD
:1016A00000B00BAA00D00CA500000EA000500F9BAC
:1016B00000C01096005012910000148C00C01587D5
:1016C00000B0178200B0197D00D01B7800001E7397
:1016D0000040206E0090226900F024640040275FE3
:1016E0000090295A00E02B5500102E500020304B5E
:1016F0000010324600E033410090353C001037378F
:101700000070383200A0392D00B03A2800A03B23E9
:1017100000603C1E00103D1900903D1400103E0F6B
:1017200000703E0A00C03E0500003F0000403FFB45
:10173000FF803FF6FFC03FF1FF4531204572723A0E
:10174000204D415854454D50004572723A204D414C
:101750005854454D5020424544004D415854454D44
:101760005020747269676765726564004531204571
:1017700072723A204D494E54454D50004572723AAE
:10178000204D494E54454D5020424544004D494E50
:1017900054454D5020747269676765726564004DE9
:1017A000383420582059204500202F002042403A4C
:1017B0000020403A0025753A253032750025303238
:1017C000753A253032750025756420253032753A1A
:1017D00025303275005A00590058000920000000D9
:1017E000000000000000000000003FFFF0000000CB
:1017F0000000000000000000003800700000000041
:10180000000000000000000030FC3000000000007C
:101810000000000000000020FC100000000000009C
:101820000000000000002078100000000000000010
:101830000000000000203010000000000000000048
:10184000000000002C00D03FC0000000000000009D
:101850002082002E31D07FE0000000000000001048
:1018600041002F7BD07FE00000000000000010410D
:10187000002F7BD07FE000000000000000208200ED
:101880002E31D03FC0000000000000004104002CB9
:1018900000D03FC00000000000000082080020309F
:1018A000107FE00000000000000082080020781097
:1018B0007FE00000000000000041040020FC107FD9
:1018C000E00000000000000020820030FC301F809B
:1018D000000000000000000000003800700F000051
:1018E000000000000000FFFFC03FFFF00600000006
:1018F0000000000000FFFFC000000000000000002A
:10190000000000000000003FFFF0000000000000A9
:10191000000000000000380070000000000000001F
:1019200000000000003186300000000000000000D0
:1019300000000000238710000000000000000000ED
:101940000000002787900000000000000000000059
:1019500000002F87D0000000000000000000000001
:10196000002F03D03FC000000000000000208200D4
:101970002030107FE0000000000000001041002037
:1019800078107FE000000000000000104100207887
:10199000107FE000000000000000208200203010D6
:1019A0003FC0000000000000004104002F03D03FB2
:1019B000C0000000000000008208002F87D07FE0F8
:1019C000000000000000008208002787907FE000F0
:1019D0000000000000004104002387107FE00000A9
:1019E00000000000002082003186301F80000000CF
:1019F000000000000000003800700F000000000030
:101A0000000000FFFFC03FFFF006000000000000E4
:101A10000000FFFFC000000043523130732077699F
:101A200074682041424C2052656164792E005072E6
:101A3000696E74696E672E2E2E005072696E742066
:101A40007061757365640000060900FE0000000007
:101A50000001090008FE000005080806000040F02B
:101A6000C88888987810050808060000C0F888889B
:101A7000888888F80505050600012030F830200523
:101A800008080600002070F820202020E005090941
:101A90000600FF2070A8A8B88888702005090906EC
:101AA00000FFE080C0B0A8283028280509090600FA
:101AB000FFF8A88888888888A8F8050A0A0600FE22
:101AC000205050505088A8A88870030303060003D4
:101AD00040A0404D3234004D323320257300556E06
:101AE0006B6E6F776E20636F6D6D616E643A20224E
:101AF00000496E736572742066696C616D656E7401
:101B000020616E6420707265737320627574746FE7
:101B10006E20286F72204D313038290A00486F74CA
:101B2000656E6420746F6F20636F6C640A0050727E
:101B30006F62696E67206661696C65640A00507245
:101B40006F62696E67206661696C656400205A3A4D
:101B5000200020593A200042656420583A20005362
:101B6000442063617264206F6B0A006F70656E526F
:101B70006F6F74206661696C65640A00766F6C75BE
:101B80006D652E696E6974206661696C65640A0012
:101B9000534420696E6974206661696C0A00207480
:101BA0006F6F206C6F6E6720657874727573696FE4
:101BB0006E2070726576656E7465640A0020636FCE
:101BC0006C6420657874727573696F6E20707265CD
:101BD00076656E7465640A00627573793A20706187
:101BE0007573656420666F7220696E7075740A0083
:101BF000627573793A2070617573656420666F72DF
:101C000020757365720A00627573793A2070726F7D
:101C100063657373696E670A004B494C4C45442EEB
:101C200020004B494C4C20636175736564206279D8
:101C3000204B494C4C20627574746F6E2F70696E26
:101C40000A004B494C4C45442E20004B494C4C203B
:101C500063617573656420627920746F6F206D75A0
:101C6000636820696E6163746976652074696D6567
:101C7000202D2063757272656E7420636F6D6D61C7
:101C80006E643A2000506C656173652072657365FF
:101C900074005052494E5445522048414C544544DA
:101CA000005072696E7465722068616C7465642E90
:101CB000206B696C6C28292063616C6C6564210A57
:101CC00000656E7175657565696E6720220000009C
:101CD000000000000000000000000000484200007A
:101CE000484200008040000000005761726E696E3B
:101CF000673A20486F6D696E672042756D702044A9
:101D0000697669736F72203C20310A000202040078
:101D100000A0400000A040000000400000964300EA
:101D20000096430000C843FFFFFF290A00206279A4
:101D30007465733B20637263200053657474696E2D
:101D400067732053746F726564202800290A00208D
:101D500062797465733B2063726320002073746F33
:101D60007265642073657474696E6773207265743C
:101D7000726965766564202800202863616C63754C
:101D80006C6174656429210A0020213D20004545CD
:101D900050524F4D20435243206D69736D617463FF
:101DA00068202D202873746F7265642920002053E9
:101DB000697A653A2000496E6465783A2000204DC2
:101DC00061726C696E3D563535290A0028454550CB
:101DD000524F4D3D00454550524F4D207665727330
:101DE000696F6E206D69736D61746368200056546D
:101DF000726176206D696E005654726176206D694D
:101E00006E005654726176206D696E00566D696E73
:101E100000566D696E00566D696E00566D617820D2
:101E20004500566D6178204500566D61782045006B
:101E3000566D6178205A00566D6178205A00566DB3
:101E40006178205A00566D6178205900566D61788E
:101E5000205900566D6178205900566D61782058E0
:101E600000566D6178205800566D61782058004DFD
:101E70006F74696F6E00416D6178204500416D613E
:101E800078204500416D6178205A00416D617820CD
:101E90005A00416D6178205900416D6178205900E8
:101EA000416D6178205800416D6178205800412DC6
:101EB00074726176656C00412D74726176656C0098
:101EC000412D7265747261637400412D7265747284
:101ED00061637400416363656C00416363656C001A
:101EE0004D6F74696F6E0056652D6A65726B005692
:101EF000652D6A65726B0056652D6A65726B0056BA
:101F00007A2D6A65726B00567A2D6A65726B00567F
:101F1000792D6A65726B0056792D6A65726B005671
:101F2000792D6A65726B0056782D6A65726B005662
:101F3000782D6A65726B0056782D6A65726B004D5C
:101F40006F74696F6E004573746570732F6D6D00EB
:101F50004573746570732F6D6D005A73746570737B
:101F60002F6D6D005A73746570732F6D6D0059730A
:101F7000746570732F6D6D005973746570732F6D78
:101F80006D005873746570732F6D6D0058737465B0
:101F900070732F6D6D004D6F74696F6E00537465B3
:101FA00070732F6D6D004A65726B00416363656CE1
:101FB00065726174696F6E0056656C6F63697479E0
:101FC0000050726F6265205A204F66667365740018
:101FD00050726F6265205A204F66667365740043C5
:101FE0006F6E74726F6C004C6F6164206D6D004C8D
:101FF0006F6164206D6D004C6F6164206D6D0055E4
:102000006E6C6F6164206D6D00556E6C6F61642045
:102010006D6D00556E6C6F6164206D6D00436F6E69
:1020200074726F6C0043616E6E6F7420656E7465C0
:1020300072207375626469723A2000022E2E0001CC
:1020400052656672657368004D61696E004D617816
:102050002054656D703A20313130004D696E205446
:10206000656D703A203500544265643A415443200E
:1020700031303447542D32004D61782054656D70F5
:102080003A20323930004D696E2054656D703A2027
:10209000350054303A204550434F53203130304BB7
:1020A000005053553A2047656E657269630050725F
:1020B0006F746F636F6C3A20312E3000426175642B
:1020C0003A203131353230300043522D3130530017
:1020D00042696C696E656172204C6576656C696EEB
:1020E00067004578747275646572733A20310054E4
:1020F00048334453747564696F2E636F6D004352A7
:1021000031307320776974682041424C0000544894
:1021100033442055312E52322E3462004D61726CA0
:10212000696E00546865726D6973746F72730042F2
:102130006F61726420496E666F005072696E7465DB
:102140007220496E666F004D61696E004D36303009
:1021500020423020542564004D373031205425640E
:10216000004D373032203B2564004D37303220544B
:10217000256400453120544845524D414C2052556C
:102180004E415741590042454420544845524D4123
:102190004C2052554E4157415900546865726D614B
:1021A0006C2052756E61776179006F70656E206684
:1021B00061696C65642C2046696C653A2000436156
:1021C0006E6E6F74206F70656E20737562646972D5
:1021D00020006563686F3A00202844525952554EDA
:1021E0002900473239204175746F20426564204CC4
:1021F0006576656C696E67003F20284C2C522C4632
:102200002C4229206F7574206F6620626F756E6492
:10221000732E0A003F2856296572626F7365206C21
:102220006576656C20697320696D706C6175736982
:10223000626C652028302D34292E0A00426164200A
:102240005A2076616C75650A004E6F2062696C6970
:102250006E65617220677269640A00205A3A200034
:1022600020593A200042656420583A20004D657399
:102270006820706F696E742063616E6E6F74206287
:1022800065207265736F6C7665640A004D36303078
:102290003A20546F6F20636F6C6400486F74656EF2
:1022A0006420746F6F20636F6C640A00205A3A00D8
:1022B00020593A0020436F756E7420583A0020452B
:1022C0003A00205A3A0020593A00583A003A00435E
:1022D00061703A0020466C6F773A200050726F743C
:1022E00065637465642050696E0A00000136372604
:1022F00003FFFFFF353C3D380EFFFFFF312E303E20
:1023000012FFFFFFFF28FF0C0809FFFFFF1A1C1830
:10231000FFFF2A08440AFF4320643A0020693A007C
:1023200020703A00496E76616C6964206578747239
:10233000756465720A0043290A0061626C65642055
:10234000286D696E2074656D702000436F6C642089
:1023500065787472756465732061726520004B64E2
:10236000200023646566696E652044454641554CEE
:10237000545F004B69200023646566696E652044E4
:10238000454641554C545F004B7020002364656600
:10239000696E652044454641554C545F00504944A0
:1023A000204175746F74756E652066696E69736817
:1023B0006564212050757420746865206C617374A5
:1023C000204B702C204B6920616E64204B6420638D
:1023D0006F6E7374616E74732066726F6D206265C8
:1023E0006C6F7720696E746F20436F6E66696775D6
:1023F000726174696F6E2E680A00504944204175FD
:10240000746F74756E65206661696C6564212074F3
:10241000696D656F75740A00453120544845524D09
:10242000414C2052554E4157415900424544205499
:102430004845524D414C2052554E41574159005448
:102440006865726D616C2052756E617761790045C7
:10245000312048656174696E67206661696C6564E6
:10246000004265642068656174696E672066616911
:102470006C65640048656174696E67206661696CAB
:10248000656400504944204175746F74756E652011
:102490006661696C6564212054656D706572617454
:1024A00075726520746F6F20686967680A00204B39
:1024B000643A2000204B693A2000204B703A2000FB
:1024C0000A20436C617373696320504944200A00F9
:1024D0002054753A2000204B753A2000206D617819
:1024E0003A2000206D696E3A200020643A200020D6
:1024F000626961733A2000504944204175746F74D9
:10250000756E65206661696C656421204261642096
:102510006578747275646572206E756D6265720A95
:1025200000504944204175746F74756E6520737452
:102530006172740A0024F4D43050C38E20C2A240C9
:1025400017828B7011127A910D816CD90AA861E102
:1025500008C7586607615143061E4B5D05C145A774
:10256000041A411104093D9803713931034036DBE7
:102570000265339102D4305402802E1D02632CEE8A
:1025800001752AC501B028A001102781018F25649B
:10259000012B244B01E0223401AC211F018D200DC1
:1025A00001801FFC00841EED00971DDF00B81CD2C7
:1025B00000E61BC600201BBC00641AB200B219A8BA
:1025C000000A19A0006A189900D117910040178BD2
:1025D00000B516840031167E00B31579003A1573E4
:1025E00000C7146F0058146A00EE13660088136366
:1025F0000025135E00C7125B006C125700151254C1
:1026000000C111510070114F0021114B00D610492B
:10261000008D1047004610440002104200C00F40D9
:1026200000800F3E00420F3C00060F3B00CB0E38EF
:1026300000930E37005C0E3500270E3400F30D3288
:1026400000C10D3100900D3000600D2E00320D2DB7
:1026500000050D2C00D90C2B00AE0C2900850C298F
:10266000005C0C2700350C27000E0C2600E80B241C
:1026700000C40B2400A00B23007D0B23005A0B2168
:1026800000390B2100180B2000F80A1F00D90A1E80
:1026900000BB0A1E009D0A1D00800A1D00630A1C63
:1026A00000470A1B002C0A1B00110A1A00F7091A1E
:1026B00000DD091900C4091900AB091900920917B6
:1026C000007B091800630917004C0916003609162B
:1026D00000200916000A091500F5081500E0081485
:1026E00000CC081400B8081400A4081400900813C3
:1026F000007D0812006B08130058081200460812EB
:1027000000340811002308110012081100010811FB
:1027100000F0071000E0071000D0071000C00710FD
:1027200000B0070F00A107100091070E0083070FEC
:102730000074070F0065070E0057070E0049070ECB
:10274000003B070D002E070E0020070D0013070D9C
:102750000006070D00F9060C00ED060D00E0060C62
:1027600000D4060C00C8060C00BC060C00B0060C19
:1027700000A4060B0099060C008D060B0082060BC8
:102780000077060B006C060B0061060A0057060B6B
:10279000004C060A0042060A0038060A002E060A05
:1027A0000024060A001A060A001006090007060A95
:1027B00000FD050900F4050900EB050900E2050923
:1027C00000D9050900D0050900C7050900BE0509A3
:1027D00000B5050800AD050800A50509009C050821
:1027E00000940508008C050800840508007C050895
:1027F00000740508006C050700650508005D050705
:1028000000560508004E050700470507004005086B
:102810000038050700310507002A050700230507D2
:10282000001C050600160507000F05070008050631
:102830000002050700FB040600F5040700EE04068D
:1028400000E8040600E2040700DB040600D50406E5
:1028500000CF040600C9040600C3040600BD040638
:1028600000B7040600B1040500AC040600A6040687
:1028700000A00405009B04060095040500900406D2
:10288000008A04050085040500800406007A04051A
:102890000075040500700405006B0405006604055E
:1028A00000610405005C040500570405005204059E
:1028B000004D04050048040500430405003E0404DF
:1028C000003A04050035040500300404002C04051A
:1028D0000027040400230405001E0404001A040455
:1028E0000016040500110404000D04040009040589
:1028F000000404040000040400FC030400F80304C2
:1029000000F4030400F0030400EC030400E80304F3
:1029100000E4030400E0030400DC030400D8030423
:1029200000D4030400D0030400CC030400C8030354
:1029300000C503030024F404D9201BC40C5C0E98CA
:1029400004C4095F0265077101F405F900FB04B3D3
:102950000048048700C1036900580355000303457C
:1029600000BE023A008402310053022A00290225E7
:102970000004022000E4011C00C8011900AF011787
:10298000009801140084011300710110006101100E
:102990000051010E0043010D0036010B002B010B0D
:1029A0000020010B00150109000C010900030108BA
:1029B00000FB000800F3000800EB000700E400063D
:1029C00000DE000600D8000600D2000600CC00059C
:1029D00000C7000500C2000500BD000400B90004E6
:1029E00000B5000400B1000400AD000400A900041B
:1029F00000A5000300A20003009F0004009B000349
:102A0000009800030095000200930003009000036B
:102A1000008D0002008B0003008800020086000287
:102A20000084000300810002007F0002007D00029C
:102A3000007B0002007900020077000100760002AE
:102A4000007400020072000100710002006F0002B9
:102A5000006D0001006C0002006A000100690002C4
:102A600000670001006600010065000100640002CB
:102A7000006200010061000100600001005F0002CF
:102A8000005D0001005C0001005B0001005A0001D4
:102A900000590001005800010057000100560001D4
:102AA00000550001005400010053000000530001D4
:102AB000005200010051000100500001004F0001D0
:102AC000004E0000004E0001004D0001004C0001CE
:102AD000004B0000004B0001004A000100490001CA
:102AE00000480000004800010047000100460000C7
:102AF00000460001004500000045000100440001BF
:102B000000430000004300010042000000420001B9
:102B1000004100000041000100400001003F0000B2
:102B2000003F0001003E0000003E0001003D0000AB
:102B3000003D0001003C0000003C0000003C0001A2
:102B4000003B0000003B0001003A0000003A000199
:102B50000039000000390001003800000038000092
:102B60000038000100370000003700010036000087
:102B7000003600000036000100350000003500007E
:102B80000035000100340000003400000034000172
:102B90000033000000330000003300010032000069
:102BA000003200000032000100310000003100005E
:102BB0000031000100300000003000000030000152
:102BC000002F0000002F0000002F0000002F000148
:102BD000002E0000002E0000002E0001002D00003D
:102BE000002D0000002D0000002D0001002C000031
:102BF000002C0000002C0000002C0001002B000025
:102C0000002B0000002B0000002B0001002A000018
:102C1000002A0000002A0000002A0001002900000C
:102C200000290000002900000029000000290001FF
:102C300000280000002800000028000000280000F4
:102C400000280001002700000027000000270000E6
:102C500000270000002700010026000000260000D9
:102C600000260000002600000026000100250000CC
:102C700000250000002500000025000000250000C0
:102C800000250001002400000024000000240000B2
:102C900000240000002400010023000000230000A5
:102CA0000023000000230000002300000023000098
:102CB000002300010022000000220000002200008A
:102CC000002200000022000000220001002100007C
:102CD0000021000000210000002100000021000070
:102CE0000021000000210001002000000020000061
:102CF0000020000000200000002000000020000054
:102D00000020000000200001001F0000001F000044
:102D1000001F0000001F0000001F0000001F000037
:102D2000001F0001001E0000001E0000001E000029
:102D3000001E000000043700001E290000511B0087
:102D4000005810000010090000CC040000780200B8
:102D5000004101000048617264636F64656420444F
:102D6000656661756C742053657474696E67732051
:102D70004C6F616465640A00E8030000E80300002A
:102D800064000000881300000000FA430000FA43CA
:102D900000007041000048420000A0420000A04234
:102DA0000000C8430000BA423A0A0020286D6D298D
:102DB0000020204D36303320002055004C0046695D
:102DC0006C616D656E74206C6F61642F756E6C6FD5
:102DD0006164206C656E677468733A0A0020204D48
:102DE000383531205A005A2D50726F6265204F6677
:102DF000667365740020440020490020204D333064
:102E00003420500020440020490020204D33303130
:102E10002050005049442073657474696E67733A9A
:102E20000A0020460020420020480020204D313476
:102E3000352053004D6174657269616C206865616D
:102E400074757020706172616D65746572733A0A91
:102E500000205A00204A00202047323920572049BC
:102E600000205A0020204D34323020530041757428
:102E70006F20426564204C6576656C696E673A0A1E
:102E800000205A0020590020204D323036205800B2
:102E9000486F6D65206F66667365743A0A00204559
:102EA00000205A00205900205800205400205300D0
:102EB00020204D32303520510020453C6D61785F37
:102EC000655F6A65726B3E0020583C6D61785F7883
:102ED0005F6A65726B3E20593C6D61785F795F6A0D
:102EE00065726B3E205A3C6D61785F7A5F6A6572ED
:102EF0006B3E00416476616E6365643A20513C6DBF
:102F0000696E5F7365676D656E745F74696D655F2B
:102F100075733E20533C6D696E5F666565647261D2
:102F200074653E20543C6D696E5F74726176656CA9
:102F30005F66656564726174653E002054002052CE
:102F40000020204D323034205000416363656C65B1
:102F5000726174696F6E2028756E6974732F733295
:102F6000293A20503C7072696E745F616363656CCE
:102F70003E20523C726574726163745F6163636585
:102F80006C3E20543C74726176656C5F616363656E
:102F90006C3E0A00204500205A0020590020204D98
:102FA0003230312058004D6178696D756D20416374
:102FB00063656C65726174696F6E2028756E6974E3
:102FC000732F7332293A0A00204500205A002059F5
:102FD0000020204D3230332058004D6178696D75E6
:102FE0006D206665656472617465732028756E690D
:102FF00074732F73293A0A00204500205A00205983
:103000000020204D393220580053746570732070B1
:10301000657220756E69743A0A0020204D3134398A
:103020002043203B20556E69747320696E204365F0
:103030006C736975730A00202047323120202020EC
:103040003B00526573656E643A20006F6B0020741C
:103050006F6F206C6F6E6720657874727573696F1F
:103060006E2070726576656E7465640A0020636F09
:103070006C6420657874727573696F6E2070726508
:1030800076656E7465640A004F66660A0046616480
:1030900065204865696768742000426564204C6556
:1030A00076656C696E6720004661696C65642074A2
:1030B0006F20656E61626C6520426564204C6576A8
:1030C000656C696E670A004D65736820706F696E84
:1030D000742063616E6E6F74206265207265736F19
:1030E0006C7665640A004D34323120696E636F720C
:1030F0007265637420706172616D657465722075AC
:10310000736167650A00454550524F4D204F4B0A89
:10311000003A200050726F6265205A204F66667335
:103120006574003F5A206F7574206F662072616E5F
:10313000676520282D3520746F2031290A00496EDB
:10314000736572742066696C616D656E7420616E62
:103150006420707265737320627574746F6E0A00F8
:10316000507265737320627574746F6E20746F2073
:1031700068656174206E6F7A7A6C650A00496E73B7
:103180006572742066696C616D656E7420616E6431
:1031900020707265737320627574746F6E20286F6F
:1031A00072204D313038290A004E6F2063617365FB
:1031B000206C696768740A006265640A002C2073D9
:1031C000797374656D2073746F7070656421204825
:1031D00065617465725F49443A2000426564206805
:1031E000656174696E67206661696C656400486535
:1031F0006174696E67206661696C656400453120A1
:1032000048656174696E67206661696C6564004831
:10321000656174696E67206661696C6564001000A1
:10322000C90210012C014001220170011801B001F6
:103230000E01F00104015002FA00B002F000300368
:10324000E600D003DC009004D2007005C800A006A0
:10325000BE000008B400B009AA00D00BA000600EA8
:10326000960060118C000015820020197800C01DA6
:103270006E00A0226400B0275A00902C500000314C
:103280004600E0343C0010383200903A2800603CA0
:103290001E00A03D1400803E0A00203F00000006F2
:1032A0000900FE0701920321207FFF07FF07FF00AF
:1032B0000000060000010707060200808080808071
:1032C0000080030202060105A0A005070706000012
:1032D0005050F850F850500507070600002078A01D
:1032E0007028F020050707060000C0C8102040988D
:1032F000180507070600006090A040A89068020328
:1033000003060104C0408003070706010020408037
:1033100080804020030707060100804020202040D5
:103320008005050506000120A870A82005050506F2
:1033300000012020F820200203030602FFC0408085
:10334000050101060003F8020202060200C0C005E2
:10335000050506000108102040800507070600004B
:103360007088888888887003070706010040C0407D
:10337000404040E005070706000070880870808024
:10338000F8050707060000F81020100808F00507E8
:103390000706000010305090F810100507070600CF
:1033A00000F880F0080888700507070600007080A4
:1033B00080F0888870050707060000F808102020B4
:1033C000202005070706000070888870888870052F
:1033D000070706000070888878080870020505064F
:1033E0000200C0C000C0C00206060602FFC0C00046
:1033F000C0408004070706000010204080402010D5
:10340000050303060002F800F80407070601008020
:103410004020102040800507070600007088081033
:1034200020002005070706000070880868A8A8701B
:10343000050707060000708888F888888805070750
:10344000060000F08888F08888F00507070600006D
:1034500070888080808870050707060000F08888E3
:10346000888888F0050707060000F88080F08080D3
:10347000F8050707060000F88080F08080800507C7
:1034800007060000708880B8888870050707060066
:1034900000888888F88888880107070602008080ED
:1034A000808080808005070706000038101010100B
:1034B00090600507070600008890A0C0A0908805CE
:1034C0000707060000808080808080F805070706D7
:1034D000000088D8A8888888880507070600008823
:1034E00088C8A8988888050707060000708888881B
:1034F000888870050707060000F08888F0808080C3
:1035000005070706000070888888A89068050707E7
:10351000060000F08888F0A09088050707060000E4
:10352000788080700808F0050707060000F8202062
:1035300020202020050707060000888888888888C2
:1035400070050707060000888888888850200507CE
:10355000070600008888888888A8500507070600A5
:103560000088885020508888050707060000888852
:103570008850202020050707060000F8081020408A
:1035800080F8030707060100E08080808080E00566
:10359000050506000180402010080307070601000A
:1035A000E02020202020E0050303060004205088AE
:1035B000050101060000F80202020602058040052E
:1035C00005050600007008788878050707060000E2
:1035D0008080B0C88888F0050505060000708080EE
:1035E000887005070706000008086898888878052D
:1035F00005050600007088F88070050707060000C2
:103600003048E0404040400506060600FF708888CC
:103610007808700507070600008080B0C888888891
:103620000107070602008000808080808003080870
:103630000601FF200020202020A0400407070600EC
:1036400000808090A0C0A090030707060100C04042
:1036500040404040E0050505060000D0A8A8A8A805
:10366000050505060000B0C8888888050505060020
:103670000070888888700506060600FFF08888F0CC
:1036800080800506060600FF78888878080805050A
:1036900005060000B0C880808005050506000070A2
:1036A000807008F00407070600004040E0404040FA
:1036B0003005050506000088888898680505050618
:1036C000000088888850200505050600008888A825
:1036D000A8500505050600008850205088050606FC
:1036E0000600FF888888780870050505060000F840
:1036F000102040F8030707060100204040804040AA
:1037000020010707060200808080808080800307F8
:10371000070601008040402040408005020206006C
:103720000268900000000600004D343238005072EC
:10373000656865617420504C4100436F6F6C646F25
:10374000776E004368616E67652066696C616D65C0
:103750006E74004368616E67652066696C616D65B3
:103760006E74004D3630302042300044697361621F
:103770006C65207374657070657273004D38340029
:1037800053657420686F6D65206F6666736574732A
:10379000005072656865617420414253004661645F
:1037A00065204865696768740046616465204865FE
:1037B00069676874004F6666004F6E20004265645A
:1037C000204C6576656C696E67004C6576656C208B
:1037D000626564004732380A4732390052756E20FC
:1037E0004D34382054657374004732380A4D3438EC
:1037F0002050313000486F6D65205A004732382024
:103800005A00486F6D6520590047323820590048EA
:103810006F6D652058004732382058004175746F2D
:1038200020686F6D6500473238004D6F7665206106
:10383000786973004D61696E00486F6D652025736E
:10384000257325732066697273740020666972732C
:10385000740A005A0059005800486F6D65200057DF
:10386000726974696E6720746F2066696C653A20AE
:10387000006F70656E206661696C65642C20466916
:103880006C653A20006F70656E206661696C6564D6
:103890002C2046696C653A200046696C652073658A
:1038A0006C65637465640A002053697A653A200088
:1038B00046696C65206F70656E65643A200020660D
:1038C000696C653A2000646F696E670066726573A3
:1038D00068004E6F772000454E4420535542524FAA
:1038E0005554494E450A002220706F730022207003
:1038F0006172656E743A2200535542524F555449D5
:103900004E452043414C4C207461726765743A22E5
:10391000004B494C4C45442E2000747279696E6707
:1039200020746F2063616C6C207375622D67636F08
:1039300064652066696C6573207769746820746FAC
:103940006F206D616E79206C6576656C732E204DED
:103950004158206C6576656C2069733A0045727237
:103960006F723A00486F6D696E67206661696C65B9
:103970006400545249474745524544006F70656E94
:10398000003A20007A5F6D696E00795F6D696E00A4
:10399000785F6D696E005265706F7274696E672032
:1039A000656E6473746F70207374617475730A004C
:1039B0004D6F76652058004D6F76652059004D6F2C
:1039C0007665205A00457874727564657200C80087
:1039D000CE0011241FBECFEFD1E2DEBFCDBF00E08D
:1039E0000CBF13E0A0E0B2E0EEEBFDE402E00BBFA1
:1039F00002C007900D92A639B107D9F725E1A6E9D3
:103A0000B3E001C01D92A13AB207E1F71CE1C8EE94
:103A1000DCE100E006C021970109802FFE010F9430
:103A20004326C73ED10780E00807A9F70F94030F8C
:103A30000D94CE260C9400002F923F924F925F92ED
:103A40006F927F928F929F92AF92BF92CF92DF92AE
:103A5000EF92FF920F931F93CF93DF93CDB7DEB713
:103A6000C156D1090FB6F894DEBF0FBECDBF2DB73A
:103A70003EB767963FAF2EAF679721E02093990737
:103A8000809182118D3409F4A4C4843511F40C940E
:103A90005533873411F00C94A133809180119091AB
:103AA00081118C31910509F435C2A4F4843091055B
:103AB0004CF48230910574F597FD87C40E9482CC46
:103AC0000C94A3338430910509F4BDC14B9709F4DC
:103AD000F9C17BC48A32910509F4F9C35CF48D31D4
:103AE000910509F4F0C34E9709F06FC40E94FEC619
:103AF0000C94A3338B35910509F4EDC38C359105F6
:103B000009F4EDC38A35910509F05FC410929A0358
:103B10000C94A33320914602222311F40C94A33376
:103B200011E0029709F010E00E94204219821A82E7
:103B30001B821C821D821E821F82188682E50E94C3
:103B40001442882309F432C10E949A416B017C011E
:103B50008091D8079091D907A091DA07B091DB073F
:103B600088A799A7AAA7BBA78090DC079090DD073C
:103B7000A090DE07B090DF0720919A0730919B0755
:103B800040919C0750919D072CA73DA74EA75FA78A
:103B900080919E0790919F07A091A007B091A107E7
:103BA00088AB99ABAAABBBAB20E030E0A901C70161
:103BB000B6010F94B11C882309F40EC128A539A5BC
:103BC0004AA55BA56CA57DA58EA59FA50F94B11CEC
:103BD00081110BC0A501940168A979A98AA99BA9A3
:103BE0000F94B11C882309F4F7C020E030E0A9014C
:103BF000C701B6010F94B11C881F8827881F1813AE
:103C00000BC020E030E040E85FE324962CAF3DAFEE
:103C10004EAF5FAF24970AC080E090E0A0E8BFEB12
:103C200024968CAF9DAFAEAFBFAF249728A539A522
:103C30004AA55BA56CA57DA58EA59FA50F944E23D7
:103C400068AF79AF8AAF9BAFA501940168A979A944
:103C50008AA99BA90F944E236CAF7DAF8EAF9FAF07
:103C600028AD39AD4AAD5BADCA01B9010F94161D3F
:103C70002B013C012CAD3DAD4EAD5FADCA01B9018C
:103C80000F94161D9B01AC01C301B2010F944F2389
:103C90000F94BB256CAB7DAB8EAB9FAB20E030E0CF
:103CA00040E05FE30F94161D2B013C01A701960134
:103CB000C701B6010F94161D6B017C01A30192018F
:103CC000C301B2010F94161D9B01AC01C701B601DF
:103CD0000F944E230F94BB259B01AC0124966CAD31
:103CE0007DAD8EAD9FAD24970F94161D6B017C01A9
:103CF0002CA53DA54EA55FA568A579A58AA59BA580
:103D00000F944F2320E030E040E05FE30F94161D56
:103D10002B013C016CAD7DAD8EAD9FAD90582CA9B3
:103D20003DA94EA95FA90F942B249B01AC01C701AB
:103D3000B6010F94161D9B01AC01C301B2010F9493
:103D40004F2328A539A54AA55BA50F944E23698367
:103D50007A838B839C8328A939A94AA95BA9C501C9
:103D6000B4010F944F2320E030E040E05FE30F9474
:103D7000161D2B013C012CA93DA94EA95FA968ADD8
:103D800079AD8AAD9BAD0F942B249B01AC01C7018B
:103D9000B6010F94161D9B01AC01C301B2010F9433
:103DA0004F23A50194010F944E2312C089E40E9471
:103DB0001442882331F00E949A4169837A838B836D
:103DC0009C838AE40E941442882331F00E949A4125
:103DD0006D837E838F83988720E030E0A90169811D
:103DE0007A818B819C810F94B11C81110BC020E0E2
:103DF00030E0A9016D817E818F8198850F94B11C7F
:103E0000882339F0612FCE0101960E945C860C94C4
:103E1000A333EDE5F9E384918F010F5F1F4F8823F2
:103E200021F00E94BA42F801F6CFEBE0F3E0849172
:103E30008F010F5F1F4F882311F40C94A3330E944E
:103E4000BA42F801F4CF80E50E941442882329F099
:103E50000E945A416B017C0103C0C12CD12C760118
:103E600083E50E941442882361F00E949A4120E079
:103E700030E04AE754E40F94161D0F9498246B0128
:103E80007C010E94E99980911115811105C060E0C3
:103E900081E293E00E9416F90E942850C60ED71EB8
:103EA000E81EF91E0E942850DC01CB018C199D09E7
:103EB000AE09BF09B7FD02C00C94A33380E00E9495
:103EC000E2A0F0CF0F94B00281110C94A33380E0F4
:103ED00090E0A0E2B1E489839A83AB83BC838D83B5
:103EE0009E83AF83B88789879A87AB87BC8780E535
:103EF0000E941442882319F00E946A4101C060E0C8
:103F000068A3BE016F5F7F4FCE0180960F946D084E
:103F10000C94A3338091C7078770873071F48FE4C6
:103F20000E941442882319F00E948B4103C08FE441
:103F30000E94CD4181110C94A3330E94E999909184
:103F4000E3129CAF80E00E94C33F0E94163C11E048
:103F50001093750488E50E94CD41382E89E50E94B2
:103F6000CD41082F8AE50E94CD4188AB311005C0B4
:103F7000011105C0282E212605C0011102C0212CE7
:103F800001C028A80E94A64282E50E94144288230C
:103F900061F00E949A416B017C0120E030E0A901B0
:103FA0000F94B11C882371F105C0C12CD12CB0E451
:103FB000EB2EFE2C211005C0311003C0002309F4A4
:103FC0000EC1C092A207D092A307E092A407F0927C
:103FD000A5072091E0073091E1074091E207509159
:103FE000E307C701B6010F94752518165CF4198212
:103FF0001A821B821C82BE016F5F7F4F82EA97E0AC
:104000000E94333D21100DC0311003C00111E2C0E8
:10401000E6C0011106C080E00E94849E2220B1F318
:10402000D9C01092DC071092DD071092DE071092C3
:10403000DF071092D8071092D9071092DA07109272
:10404000DB070E94A43EE7E2FDE1A4912196AFAF19
:104050002197EBE1FDE185909590A590B490EFE17B
:10406000FDE1C590D590E590F490A7019601C501BA
:10407000B4010F94752518162CF4A5019401C701FD
:10408000B60104C0A7019601C501B4010F942B2409
:104090002B013C01EEEDFCE12591359145915491C8
:1040A00028A739A74AA75BA7EAEDFCE1859195917E
:1040B000A591B4918CA79DA7AEA7BFA7BC01CD01C8
:1040C0000F94B11C87FD08C018A599A59CABAAA5A3
:1040D000A8AFBBA5B8A707C01CA5EDA5ECABFEA576
:1040E000F8AF2FA528A7A3019201C301B2010F9435
:1040F000161D20E030E040E85FE30F944F230F945B
:10410000BB259B01AC01612F7CA988AD98A50F94BC
:10411000161D6CA37DA38EA39FA3E8E2FDE114917D
:1041200020E030E040EC5FE3C701B6010F94161DBC
:104130006B017C01612F110F770B880B990B0F948A
:10414000B71C9B01AC01C701B6010F94161D698312
:104150007A838B839C8320E030E040EC5FE3C501F1
:10416000B4010F94161D6B017C0121963FAD219780
:10417000632F330F770B880B990B0F94B71C9B01A0
:10418000AC01C701B6010F94161D68A379A38AA3D9
:104190009BA3AE014C5D5F4FBE016F5F7F4FCE01B1
:1041A00080960E94123D0F94A9091092DC0710928C
:1041B000DD071092DE071092DF071092D8071092E9
:1041C000D9071092DA071092DB07211024CF3110A3
:1041D00022CF1CCF81E00E94849E211004C048A9F8
:1041E000442309F45EC08091C70783708330E9F0EF
:1041F00060E089E393E00E9416F9E2EDF1E2849138
:104200008F010F5F1F4F882321F00E94BA42F801EF
:10421000F6CFEAE2F3E084918F010F5F1F4F88230E
:10422000F1F10E94BA42F801F6CF0E94A43E8091BB
:10423000E0079091E107A091E207B091E307809336
:10424000A2079093A307A093A407B093A50780E0CB
:1042500090E0A2E4B3E480939A0790939B07A09325
:104260009C07B0939D0780E090E0A0E2B3E48093C8
:104270009E0790939F07A093A007B093A107198270
:104280001A821B821C82AE014F5F5F4F6EE977E09E
:104290008AE997E00E94123D82E00E94849E0E947B
:1042A000B6C60E94A43E80917404809375048CADC0
:1042B0000E94C33F0E94FD3B83E0809348020E941E
:1042C000FCD30C94A3330E94F8C70C94A3330E9430
:1042D000C6C50C94A33320939A030C94A333F0E641
:1042E0002F2EF2E03F2EA2E1CA2EA8E0DA2EE12C1A
:1042F000F12C00E010E0D1018D911D010E941442CB
:10430000882309F44EC00E949A412B013C011330CE
:1043100059F0F701E853F84F2081318142815381F0
:104320000F944E232B013C01F701E852F84F2081F6
:10433000318142815381C301B2010F944E234B015D
:104340005C012DEB37E346E855EB0F94752587FDAF
:104350000AC02DEB37E346E855E3C501B4010F94DD
:10436000B11C1816F4F4133051F44092E407509243
:10437000E5076092E6077092E70701E012C0A50129
:104380009401F60160817181828193810F944F23A2
:10439000D6016D937D938D939C931397812F0E94EB
:1043A000F13D1F5FB4E0CB0ED11CE4E0EE0EF11C3A
:1043B000143009F0A0CF002321F084EE97E00F9491
:1043C00051030E94FCD30C94A3330E94988A0C944E
:1043D000A33380918011909181118637910511F45A
:1043E0000C947A2E0CF0DFC08C34910511F40C94EF
:1043F000ED2A0CF05DC08931910509F4C3C23CF58A
:104400008431910509F46DC284F48131910509F478
:1044100059C22CF4029708F4DBC10C945233429732
:1044200011F40C94FB2C0C9452338631910509F451
:104430009FC20CF499C28731910509F49FC2489735
:1044400011F00C9452330E94E1D40C94A3338E31BA
:10445000910509F44DC384F48B31910509F4A4C28C
:104460000CF49EC28C31910509F438C34D9711F4B8
:104470000C94A3330C9452338033910509F4DDC4BA
:104480004CF48F31910509F415C4809709F4C3C326
:104490000C9452338934910511F40C94E02A8B3436
:1044A000910511F00C9452330E9408F50C94A3333B
:1044B0008A36910511F40C943A2CECF5843591056B
:1044C00011F40C94FB2CF4F48135910511F40C9447
:1044D000E42C4CF48D34910511F00C9452330E946D
:1044E00056F50C94A3338235910511F40C94F82CF5
:1044F0008335910511F00C94523381E08093990338
:104500000C94A3338C35910511F40C94472D3CF495
:104510008535910511F40C942E2D0C945233883668
:10452000910511F40C94F12A8936910511F40C943B
:10453000B62B0C9452338F36910511F40C94352B15
:10454000A4F48C36910511F40C94832B14F40C9480
:10455000562C8D36910511F40C94F62B8E36910560
:1045600011F40C94222B0C9452338237910511F4E0
:104570000C94CF2D64F48037910511F40C94872BA3
:104580008137910511F40C948B2B0C9452338337A3
:10459000910511F40C940E2E8537910511F40C94AD
:1045A0006B2E0C9452338E32F1E09F0711F40C9471
:1045B00091320CF082C08B3C910511F40C94652F64
:1045C000E4F58C38910511F40C940C2CA4F4883784
:1045D000910511F40C94CA2E14F40C94C72E89374B
:1045E000910511F40C94D02E8D37910511F40C9493
:1045F000662C0C9452338B39910511F40C94D12B09
:104600003CF48139910511F40C94D52E0C9452335D
:104610008E3B910511F40C94262C893C910511F0E8
:104620000C945233E1E4EE2EE8E0FE2E00E612E0B8
:10463000F4E0DF2ED00E0C944C2F8C3D910511F43C
:104640000C945532B4F48D3C910511F40C94F82F70
:1046500014F40C94832F8E3C910511F40C94773054
:10466000833D910511F00C945233E2EDF1E20C948C
:104670007731823231E0930711F40C94653274F48F
:104680008D3D910511F40C946232823E910511F03A
:104690000C9452330E94DFD20C94A3338C3251E03D
:1046A000950711F40C9468328D32914011F00C94FE
:1046B00052330E94F3D10C94A333843FB1E09B07A3
:1046C00011F40C942B330CF042C08139F1E09F07B8
:1046D00011F40C941733C4F4803331E0930711F4D0
:1046E0000C94973214F40C949432833651E095076D
:1046F00011F40C9414338039914011F00C9452331E
:104700000E94E9990C94A333843AB1E09B0711F419
:104710000C9425337CF48239F1E09F0711F40C945A
:104720001D338A39914011F00C9452330E943CF0B1
:104730000C94A333853A31E0930711F40C94283399
:104740008C3A914011F40C949A300C945233883581
:1047500052E0950711F40C943733C4F4863FB1E06E
:104760009B0711F40C94313314F40C942E33873FCF
:10477000F1E09F0711F40C943433883F914011F01D
:104780000C9452330E94A7ED0C94A3338B3833E082
:10479000930711F40C94A3337CF48B3552E0950706
:1047A00011F40C943A338335934011F00C94523346
:1047B0000E9435ED0C94A333803AB3E09B0709F4D3
:1047C0006CC2873E934011F40C943D330C945233E9
:1047D000A0907E11B0907F1180E50E941442882342
:1047E00059F00E945A416B017C0111E0672B682B44
:1047F000692B31F410E004C010E0C12CD12C7601FB
:1048000083E50E941442882311F40C94A8330E947B
:104810009A4120E030E04AE754E40F94161D0F94CB
:1048200098246B017C0111110BC0672B682B692B3D
:1048300039F4A114B10421F0D5018C91811102C089
:1048400010E001C011E00E94E999112329F061E014
:10485000C5010E9452F905C060E087E493E00E9420
:1048600016F983E08093990781E080939807C1143B
:10487000D104E104F104F1F00E942850C60ED71EC5
:10488000E81EF91E0E942850DC01CB018C199D09FD
:10489000AE09BF09B7FD06C00E9471791092980752
:1048A0000C94A333809198078823B1F380E00E9491
:1048B000E2A0E8CF80919807882371F380E00E94FE
:1048C000E2A0F8CF60E08AE593E00E9416F95F98D5
:1048D0008A988091080181708093060112980C9447
:1048E000A333E2E7F3E084918F010F5F1F4F88232A
:1048F00021F00E94BA42F801F6CF1092CB0B40E0B3
:1049000050E0BA0184E599E00E94005C8BE1E4E5A7
:10491000F9E0DE01159601900D928A95E1F78091FC
:104920005209909153099C838B8382E193E09A838F
:10493000898340E050E0BE016F5F7F4F80E090E0F0
:104940000E941DBDCE0101960E945EA0E3E6F3E049
:1049500084918F010F5F1F4F882311F40C94A333B0
:104960000E94BA42F801F4CF0E9457800C94A333FE
:104970001092FD081092FE080C94A3330E945DC3B0
:104980000C94A3331092FD080E9441F583E893E054
:1049900090938C0780938B070E94453E0C94A33321
:1049A0000E94C7D40C94A33383E40E94CD41882392
:1049B00009F454C0E5EBF3E084918F010F5F1F4FC2
:1049C000882321F00E94BA42F801F6CF8091190B9A
:1049D000882391F0BE016F5F7F4F86E19BE00E94CC
:1049E000799B8E010F5F1F4FF80181918F01882302
:1049F00081F10E94BA42F8CFE8E8F3E084918F0198
:104A00000F5F1F4F882329F10E94BA42F801F6CFA9
:104A10008091C207882309F469C66DE3C62E65E05C
:104A2000D62EE12CF12C20E08091C20790E00E2CD4
:104A300002C0959587950A94E2F780FD3FC6FFEF87
:104A4000EF1AFF0A32E0C30ED11C45E0E416F10470
:104A500059F78AE00E94BA420C94A3338091FE0871
:104A6000882371F18091FD08882351F1E2E9F3E098
:104A700084918F010F5F1F4F882321F00E94BA425B
:104A8000F801F6CF6091C70B7091C80B8091C90BEC
:104A90009091CA0B4AE00E9460458FE20E94BA42A0
:104AA0006091C30B7091C40B8091C50B9091C60BA4
:104AB0004AE00E9460458AE00E94BA420C94A33307
:104AC000E4EAF3E084918F010F5F1F4F882311F414
:104AD0000C94A3330E94BA42F801F4CF40E060E0A6
:104AE00080917E1190917F110F9458000C94A33304
:104AF0008091FE08882311F40C94A33386E19BE097
:104B00000E94CE5B86E19BE00E94549B1092FC08C1
:104B10001092FB0800917E1110917F118091FE0888
:104B2000882311F40C94A3330E9480C1B801CE01F4
:104B300080960E94C8C08C01892B11F40C94A33379
:104B400068A179A16115710511F06C5F7F4F198221
:104B50001C8222E0A801CE0101960E94E961811128
:104B600002C0F12C14C0CE0101960E948BBC882398
:104B7000C1F361E0CE0101960E945D9B009789F32D
:104B800025EEDC012C931C820E94DF59F82ECE0109
:104B900001960E94A042FF2021F1E4ECF3E0849111
:104BA0007F01BFEFEB1AFB0A882321F00E94BA4273
:104BB000F701F5CFF80181918F01882319F00E9448
:104BC000BA42F8CF8AE00E94BA421092C70B109204
:104BD000C80B1092C90B1092CA0B0E948EBF0C9486
:104BE000A333E2EDF3E084917F012FEFE21AF20AA2
:104BF000882321F00E94BA42F701F5CFD8018D91A8
:104C00008D01882319F00E94BA42F8CF8EE20E94EB
:104C1000BA420C94A3338091FD0881110E94E99956
:104C20008091FE08882311F40C94A33380E50E9440
:104C30001442882319F00E948B4103C080E50E9432
:104C4000CD41182F482F61E080917E1190917F1106
:104C50000F94580083E50E941442882381F00E943B
:104C60006A41AB01BC014093C70B5093C80B6093E2
:104C7000C90B7093CA0B86E19BE00E94005C809197
:104C8000FE08882319F081E08093FD0811110C942F
:104C9000A3330E9408F50C94A33380917E11909168
:104CA0007F1121E02093FC0840E060E00F94580061
:104CB0000C94A3330E94D4F4ECE3CE2ED12CE12C3F
:104CC000F12CA70196010F94F122B62EA72ECA014E
:104CD000B901A70196010F94F1226B017C01CA0171
:104CE000B90128E130E040E050E00F94F1222B01BF
:104CF0003C01C9016DE671E00F941C268E010F5F27
:104D00001F4F61157105D9F0AF92BF92DF92CF921C
:104D10005F924F929F938F937F936F9382E194E082
:104D20009F938F931F930F930F944A1CEDB7FEB779
:104D30003E960FB6F894FEBF0FBEEDBF63C000975E
:104D4000D1F0AF92BF92DF92CF925F924F929F933A
:104D50008F9382E094E09F938F931F930F930F9410
:104D60004A1C2DB73EB7245F3F4F0FB6F8943EBFA5
:104D70000FBE2DBF47C04114510461047104C1F03E
:104D8000AF92BF92DF92CF925F924F9286EF93E005
:104D90009F938F931F930F930F944A1C4DB75EB749
:104DA000465F5F4F0FB6F8945EBF0FBE4DBF2AC07F
:104DB000C114D104E104F104A9F0AF92BF92DF92D3
:104DC000CF928EEE93E09F938F931F930F930F9448
:104DD0004A1C8DB79EB708960FB6F8949EBF0FBEBB
:104DE0008DBF10C0AF92BF928AEE93E09F938F93D6
:104DF0001F930F930F944A1C0F900F900F900F90DA
:104E00000F900F9060E0C8010E9452F9E2EDF1E2CC
:104E100084917F019FEFE91AF90A882321F00E940B
:104E2000BA42F701F5CFB80186E294E00E949F8B69
:104E30008AE00E94BA420C94A333ADB7BEB7609625
:104E4000BFAFAEAF60970F94B0028111AEC386E5DD
:104E50000E941442882391F00E947A4188A78530ED
:104E600080F0EEE1F5E084918F010F5F1F4F882302
:104E700009F49BC30E94BA42F801F5CFB1E0B8A78C
:104E800003C0E8A5EE2361F0E9E0F5E084918F012D
:104E90000F5F1F4F882321F00E94BA42F801F6CF1E
:104EA00060E086E393E00E9452F980E50E9414429C
:104EB000882321F00E947A41182F01C01AE08CEF5C
:104EC000810F8F3268F0E5EEF4E084918F010F5F7F
:104ED0001F4F882309F469C30E94BA42F801F5CF35
:104EE00085E40E941442882349F00E948B41882364
:104EF00049F0F1E02C96FFAF2C9708C085E40E94A2
:104F0000CD41F5CF22E02C962FAF2C978090DC0777
:104F10009090DD07A090DE07B090DF0720E030E042
:104F200040E352E46091D8077091D9078091DA0785
:104F30009091DB070F944E236B017C0188E50E9462
:104F40001442882321F00E949A416B017C01CCA27B
:104F5000DDA2EEA2FFA220E030E040E251E4C50174
:104F6000B4010F944E239B01AC0189E56F962FAFDE
:104F70006F97A0963FAFA097A1964FAFA197A2962B
:104F80005FAFA2970E9414426F962FAD6F97A096C5
:104F90003FADA097A1964FADA197A2965FADA29706
:104FA000882321F00E949A419B01AC0128A339A3D8
:104FB0004AA35BA36CA17DA18EA19FA10E94DD9F4E
:104FC00081110DC0EDECF4E084918F010F5F1F4F54
:104FD000882309F4EAC20E94BA42F801F5CF38A545
:104FE000333068F0E3EBF4E084917F014FEFE41A93
:104FF000F40A882321F00E94BA42F701F5CF5091BC
:10500000E31265965FAF659780E00E94C33F0E9400
:10501000163C8DB79EB7A4E01A9F80199109112400
:105020000FB6F8949EBF0FBE8DBFEDB7FEB7319699
:105030002E96FFAFEEAF2E9728A52C964FAD2C974E
:10504000BE01605E7F4FCE0184960E949C819B01D1
:10505000AC010F94FD258111C9C10E942850611532
:1050600071058105910511F00F942A182B961FAE3A
:105070002B97F3EF2196FFAF21972FE425962FAFC3
:10508000259733EC29963FAF299747EC2A964FAFE7
:105090002A9753EF58AB8FE48CAB93EC98AFA7E40F
:1050A000ACAF812C912C540124013501E12FF0E0AB
:1050B0006996FFAFEEAF6997F8A5F2506A96FFAF19
:1050C0006A97212F30E040E050E06E962CAF3DAF64
:1050D0004EAF5FAF6E972B96EFAD2B97CE2ED12CA8
:1050E00069962EAD3FAD6997C216D3060CF07CC110
:1050F00020E02C964FAD2C97BE01605E7F4FCE0115
:1051000084960E949C81062F372E282E9CA7F6019C
:10511000EE0FFF1FEE0FFF1F2E964EAD5FAD2E97C9
:10512000E40FF51F802F932DA22DBCA580839183C2
:10513000A283B383202F332D422D5B2F602F732D3D
:10514000822D9B2F0F94FD2581116FC1812C912CF5
:10515000540110E02E96EEADFFAD2E9754E0159F52
:10516000E00DF11D11242081318142815381C5015F
:10517000B4010F944F234B015C011F5F2B968FAD41
:105180002B97811738F79FEFC91AD90A0D2C000CFD
:10519000EE08FF08C701B6010F94B71C64966CAF08
:1051A0007DAF8EAF9FAF64979B01AC01C501B40189
:1051B0000F942B242B013C01202F332D422D5CA575
:1051C00068A97CA988AD9CAD0F94752518162CF4A0
:1051D00008AB3CAA28AEACA5ACAF202F332D422D96
:1051E0005CA521966FAD219725967FAD25972996D1
:1051F0008FAD29972A969FAD2A970F94B11C87FFF0
:105200000DC021960FAF219725963FAE2597299681
:105210002FAE2997BCA52A96BFAF2A97812C912C37
:10522000540110E02E96EEADFFAD2E9724E0129FB4
:10523000E00DF11D1124A301920160817181828131
:1052400093810F944E239B01AC010F94161D9B017B
:10525000AC01C501B4010F944F234B015C011F5FEA
:105260002B963FAD2B973117E8F664962CAD3DADEC
:105270004EAD5FAD64970F942B240F94BB254B016B
:105280005C016A964FAD6A974E3708F0A5C0C7011A
:10529000B6010E940246EEEAF4E084917F015FEFDE
:1052A000E51AF50A882321F00E94BA42F701F5CFEA
:1052B0006E966CAD7DAD8EAD9FAD6E970E94024631
:1052C000E8EAF4E084917F019FEFE91AF90A882364
:1052D00021F00E94BA42F701F5CF43E0602F732D11
:1052E000822D9CA50E941C46A8A5A23009F471C07D
:1052F000E0EAF4E084918F010F5F1F4F882321F0D3
:105300000E94BA42F801F6CF44E0C301B2010E9404
:105310001C46E7E9F4E084918F010F5F1F4F88235B
:1053200021F00E94BA42F801F6CF46E0C501B4016F
:105330000E941C46E0E9F4E084918F010F5F1F4F4B
:10534000882321F00E94BA42F801F6CF43E068A911
:105350007CA988AD9CAD0E941C46E9E8F4E08491EC
:105360008F010F5F1F4F882321F00E94BA42F8017E
:10537000F6CF43E021966FAD219725967FAD259717
:1053800029968FAD29972A969FAD2A970E941C4691
:10539000E0E8F4E084918F010F5F1F4F882321F034
:1053A0000E94BA42F801F6CF28A93CA948AD5CADED
:1053B00021966FAD219725967FAD259729968FADC4
:1053C00029972A969FAD2A970F944E2343E00E9477
:1053D0001C468AE00E94BA422B96BFAD2B97BF5F56
:1053E0002B96BFAF2B9777CE11E020C010E033EFA4
:1053F00021963FAF21974FE425964FAF259753EC69
:1054000029965FAF299787EC2A968FAF2A9793EF5B
:1054100098ABAFE4ACABB3ECB8AFE7E4ECAF812C46
:10542000912C54012401350101C010E080E00E945C
:10543000513D112309F4A3C0E5E7F4E084918F0105
:105440000F5F1F4F882321F00E94BA42F801F6CF68
:10545000F8A5FF2309F463C0EEE6F4E084918F0120
:105460000F5F1F4F882321F00E94BA42F801F6CF48
:1054700046E0C301B2010E941C46E7E6F4E08491D5
:105480008F010F5F1F4F882321F00E94BA42F8015D
:10549000F6CF43E068A97CA988AD9CAD0E941C466C
:1054A000E0E6F4E084918F010F5F1F4F882321F025
:1054B0000E94BA42F801F6CF43E021966FAD2197E2
:1054C00025967FAD259729968FAD29972A969FAD72
:1054D0002A970E941C46E7E5F4E084918F010F5F54
:1054E0001F4F882321F00E94BA42F801F6CF28A965
:1054F0003CA948AD5CAD21966FAD219725967FAD57
:10550000259729968FAD29972A969FAD2A970F94B4
:105510004E2343E00E941C468AE00E94BA42E2E425
:10552000F4E084918F010F5F1F4F882321F00E94C8
:10553000BA42F801F6CF46E0C501B4010E941C460C
:105540008AE00E94BA428AE00E94BA429E012F5F1E
:105550003F4F7901890126E042E0C501B4010F9473
:10556000BC17FF92EF9283E394E09F938F931F9277
:105570000F9495020F900F900F900F900F900E9434
:10558000FD3B65968FAD65970E94C33F0E94B6C6EE
:105590000E94FCD360964EAD5FAD60970FB6F89455
:1055A0005EBF0FBE4DBF0C94A33360968EAD9FAD12
:1055B00060970FB6F8949EBF0FBE8DBF0C94A333B7
:1055C0008091FD0881110C94A33380E50E94CD41A8
:1055D00081110C94AD330C94A3330E9441F50C94CB
:1055E000A33388E690E00E94C64581110C94A33352
:1055F0008091C20783FF02C00C94A33383E50E940D
:105600001442882311F40C94A3330E949A410F94FE
:1056100093247093C1076093C00780E00E9496F3C3
:105620000E949A4120E030E04AEA52E40F94B11C13
:10563000181614F40C94A3330E9456F50E94717945
:105640000C94A3338EE40E941442882311F40C942A
:10565000A3330E946A416093571570935815809345
:10566000591590935A150C94A33383E50E94CD41AC
:10567000882359F083E50E941442882319F00E9480
:105680007A4101C080E08093C207E2EDF1E28491AB
:105690008F010F5F1F4F882321F00E94BA42F8014B
:1056A000F6CFEBE4F5E084918F010F5F1F4F882365
:1056B00009F4AEC90E94BA42F801F5CFBB24B394F5
:1056C000B20E222319F08CE20E94BA42F601259113
:1056D0003491F901849189010F5F1F4F882321F0D4
:1056E0000E94BA429801F5CF2B2DA9C9E7E4F5E055
:1056F00084918F010F5F1F4F882309F4AAC90E946C
:10570000BA42F801F5CF109223020C94A33382E53C
:1057100095E00E947FA083E50E941442882369F0EF
:105720000E947A418D3320F480932E020C94A3338F
:105730008CE380932E020C94A333E2EDF1E284918A
:105740008F010F5F1F4F882321F00E94BA42F8019A
:10575000F6CF40912E0250E060E070E08BE595E0DE
:105760000E949BDC8AE00E94BA42EDC789E690E085
:105770000E94C645811111C0E2E6F5E084918F01D7
:105780000F5F1F4F882321F00E94BA42F801F6CF25
:105790000E9420778AE00E94BA42109299070C94E6
:1057A000303783E50E941442882309F4CCC70E9455
:1057B0007A41182F8D3308F01CE3109311080E94D2
:1057C00028506B017C01212F30E0A8EEB3E00F944C
:1057D0003F23C60ED71EE81EF91EC0920D08D092B8
:1057E0000E08E0920F08F0921008ADC78DE690E029
:1057F0000E94C6458111A7C78091C20783FDA3C738
:1058000083E50E94144288A78111B2C782E50E94F5
:1058100014428111ADC797C78091C20783FD93C71A
:1058200083E50E941442882309F48DC70E949A419F
:105830000F9493246E36710514F06EE670E0709349
:105840007F1560937E150E944BF37DC78091C20740
:1058500083FD79C783E50E94144221968FAF21977B
:1058600081110C94593582E50E94144281110C94E7
:10587000593569C780E50E941442811106C083E54D
:105880000E941442882359F005C00E947A41811178
:105890005AC7F5CF0E946A416F3F710510F06FEF54
:1058A00070E070938115609380154DC780E50E946C
:1058B0001442811105C0109281151092801543C7C2
:1058C0000E946A41672B09F03EC7F5CF8CE40E9425
:1058D000CD41882381F00E949A416B017C0120E038
:1058E00030E0A9010F94752587FF0AC0F7FAF094FC
:1058F000F7F8F09405C0C12CD12CE12C30E4F32E44
:10590000F7FAF094F7F8F094CCA2DDA2EEA2FFA291
:1059100080E090E0A0E2B1E489839A83AB83BC830A
:105920008D839E83AF83B88789879A87AB87BC872F
:1059300088E50E941442882379F088E50E94144289
:10594000882319F00E949A4103C060E070E0CB0107
:1059500069837A838B839C8389E50E941442882320
:1059600079F089E50E941442882319F00E949A4137
:1059700003C060E070E0CB016D837E838F839887E6
:105980008AE50E941442882379F08AE50E94144235
:10599000882319F00E949A4103C060E070E0CB01B7
:1059A00069877A878B879C8718A219A21AA21BA2E3
:1059B00020E0AE01405E5F4FBE016F5F7F4FCE01C2
:1059C00084960E947EC4BFC60E946BF50E94449BD1
:1059D000109281151092801568EE73E080E090E0DF
:1059E0000E94015860E085EA95E00E9416F9ABC676
:1059F00010929903A8C683E50E941442882399F067
:105A00000E949A4120E030E04AE754E40F94161DCA
:105A10000F94982460932F02709330028093310288
:105A20009093320290C688E50E94CD4181110C947A
:105A3000FF3689E50E94CD4181110C94FF368AE53D
:105A40000E94CD4181110C94FF3685E40E94CD4126
:105A500081110C94FF360E94449B75C683E50E9419
:105A6000CD41882309F46FC60E949A4120E030E0BE
:105A70004AE754E40F94161D0F9498246093090884
:105A800070930A0880930B0890930C085CC690E60C
:105A9000C92E92E0D92E2FEFE22E24E1F22E10E053
:105AA000D6018D916D010E94CD41882309F46DC00E
:105AB000133009F063C00E949A414B015C0120E061
:105AC00030E040EA51E40F94B11C87FF4EC0A501BD
:105AD000940160910B1570910C1580910D159091AA
